:020000040000FA
:02000000FE2FD1
:100F8400F701F70A83160313860177088312031304
:100F940086000130DC277708F5007507F60076082F
:100FA400F7007708031DD72FD82FC72FF701F70AAB
:100FB400C72F0028F200F301F72FF4010D30F100E0
:100FC400FB30F000F00BE42FF10BE42FE92F01309C
:100FD400F0007008F40764307402031CF22FF32F3E
:100FE400E02F0130F0007008F30772087302031C4D
:0C0FF400FC2FFD2FDF2F08008301C22F0F
:02400E00293F48
:00000001FF
