:020000040000FA
:1000000088018316880183120530E4002630E5005C
:100010002530E6006508E7006608E80000000000FB
:1000200000000000E80B0E28E70B0C28E40B0A2860
:100030000000000000000000033088008816013036
:10004000E4001230E5002730E6006508E7006608A6
:10005000E8000000000000000000E80B2928E70B82
:100060002728E40B2528000000000000000088126B
:100070000330880088160130E4001230E500273094
:10008000E6006508E7006608E800000000000000E0
:100090000000E80B4528E70B4328E40B412800004B
:1000A000000000000000881203308800881601302C
:1000B000E4001230E5002730E6006508E700660836
:1000C000E8000000000000000000E80B6128E70BDA
:1000D0005F28E40B5D28000000000000000088128B
:1000E000023088160130E4001230E5002730E600C7
:1000F0006508E7006608E800000000000000000056
:10010000E80B7C28E70B7A28E40B78280000000035
:100110000000000088122C30000E0F3988000812F1
:100120008816000000000000000088120830E1007E
:100130002330E2006208E30000000000000000003D
:10014000E30B9C28E10B9A2800000000000000004F
:1001500008162C300F39880008128816000000009D
:100160000000000088120830E1002330E20062083D
:10017000E3000000000000000000E30BB928E10BE1
:10018000B72800000000000000000830000E0F3902
:100190008800081288160000000000000000881285
:1001A0000830E1002330E2006208E30000000000B4
:1001B00000000000E30BD628E10BD428000000006B
:1001C00000000000081608300F3988000812881651
:1001D000000000000000000088120830E100233019
:1001E000E2006208E3000000000000000000E30BF2
:1001F000F328E10BF12800000000000000000130AE
:10020000000E0F3988000812881600000000000058
:10021000000088120830E1002330E2006208E300A9
:100220000000000000000000E30B1029E10B0E2984
:100230000000000000000000081601300F3988009F
:100240000812881600000000000000008812083024
:10025000E1002330E2006208E3000000000000003B
:100260000000E30B2D29E10B2B290000000000000A
:1002700000000630000E0F398800081288160000B2
:1002800000000000000088120830E1002330E20086
:100290006208E3000000000000000000E30B4A29B0
:1002A000E10B48290000000000000000081606309D
:1002B0000F398800081288160000000000000000B6
:1002C00088120830E1002330E2006208E3000000F9
:1002D000000000000000E30B6729E10B6529000026
:1002E0000000000000002C30000E0F3988000812BA
:1002F0008816000000000000000088120830E100AD
:100300002330E2006208E30000000000000000006B
:10031000E30B8429E10B82290000000000000000AB
:1003200008162C300F3988000812881600000000CB
:100330000000000088120830E1002330E20062086B
:10034000E3000000000000000000E30BA129E10B26
:100350009F2900000000000000002C30000E0F3923
:1003600088000812881600000000000000008812B3
:100370000830E1002330E2006208E30000000000E2
:1003800000000000E30BBE29E10BBC2900000000C7
:100390000000000008162C300F398800081288165B
:1003A000000000000000000088120830E100233047
:1003B000E2006208E3000000000000000000E30B20
:1003C000DB29E10BD9290000000000000000083003
:1003D000000E0F3988000812881600000000000087
:1003E000000088120830E1002330E2006208E300D8
:1003F0000000000000000000E30BF829E10BF629E3
:100400000000000000000000081608300F398800C6
:100410000812881600000000000000008812083052
:10042000E1002330E2006208E30000000000000069
:100430000000E30B152AE10B132A00000000000066
:1004400000000630000E0F398800081288160000E0
:1004500000000000000088120830E1002330E200B4
:100460006208E3000000000000000000E30B322AF5
:10047000E10B302A000000000000000008160630E2
:100480000F398800081288160000000000000000E4
:1004900088120830E1002330E2006208E300000027
:1004A000000000000000E30B4F2AE10B4D2A000082
:1004B0000000000000004830000E0F3988000816C8
:1004C0008816000000000000000088120830E100DB
:1004D0002330E2006208E30000000000000000009A
:1004E000E30B6C2AE10B6A2A000000000000000008
:1004F000081248300F3988000816881600000000DE
:100500000000000088120830E1002330E200620899
:10051000E3000000000000000000E30B892AE10B6B
:0E052000872A00000000000000000812962A42
:02052E00003497
:02053000003495
:02400E00313F40
:00000001FF
