:020000040000FA
:10000000F82F00308A000408840A820700343F3445
:1000100006345B344F3466346D347D3407347F34BA
:040020006F34803485
:1002F400F21F7D297E298B297008003CF0007108CB
:10030400031C710F003CF1007208031C720F803C47
:10031400F200F51F8E298F299C297308003CF300F5
:100324007408031C740F003CF4007508031C750F5B
:10033400803CF5008030F2068030F50675087202C4
:10034400031DAA2974087102031DAA2973087002E7
:100354000318AD29AE29B0290310B12903140800EC
:10036400700871040319B729B829E729F501F50ABA
:10037400C62901300310F00DF10DFF3E031DBC2909
:100384000130F4007408F507F11FC929CA29BB29F3
:1003940071087302031DD02970087202031CD3294B
:1003A400D429DA297008F2027108031CF303F3025A
:1003B40001300310F10CF00CFF3E031DDB2901306A
:1003C400F502031DE629E729CA297308F10072081A
:1003D400F0000800F501F601700871040319F3290F
:1003E400F4292B2AF701F70A022A01300310F00D31
:1003F400F10DFF3E031DF8290130F4007408F707DE
:10040400F11F052A062AF72901300310F50DF60D10
:10041400FF3E031D072A71087302031D132A700887
:100424007202031C162A172A1E2A7008F202710887
:10043400031CF303F302751401300310F10CF00CE8
:10044400FF3E031D1F2A0130F702031D2A2A2B2A0F
:10045400062A7608F1007508F000080073080319ED
:10046400342A352A3C2A720871047004031D3B2A7D
:100474003C2A4F2A0030F0000030F1000030F20036
:10048400AB2A0130F5007508F30701300310F20CB4
:10049400F10CF00CFF3E031D482AFE307205031DCB
:1004A400542A552A432A6C2A0130F5007508F307AB
:1004B4000130F007003003180130F1070030031851
:1004C4000130F20701300310F20CF10CF00CFF3E86
:1004D400031D652AFF307205031D712A722A562AEC
:1004E4007D2A0130F30201300310F00DF10DF20DFD
:1004F400FF3E031D762AF11B802A812A872A0230B7
:1005040073020318862A872A732A73188A2A8B2A65
:10051400912AFF30F0057F30F105FF30F20503101A
:10052400F30C7308F500F601F70110300310F50D14
:10053400F60DF70DFF3E031D982A7508F0047608A2
:10054400F1047708F20474080319A92AAA2AAB2A29
:10055400F2170800831203132A08AE002B08AF0019
:100564002C08B00003102F0D300DB1003108B70076
:100574003708031DBE2ABF2AC82A0030AD00003048
:10058400AC000030AB000030AA00372B2A08AE00C4
:100594002B08AF002C08B00017300310B00CAF0CC0
:1005A400AE0CFF3E031DCF2A2E08B1003108B20065
:1005B400AB17FF30AA05FF30AB050030AC052A08A5
:1005C400B3002B08B4002C08B500B6018E30B70276
:1005D400B71FED2AEE2A082B3708803A8F3E0318FE
:1005E400F42AF52AF62ABF2A01300310B60CB50CFA
:1005F400B40CB30CFF3E031DF72A0130AE002E08E5
:10060400B707031D062B072BF62A1F2B18303702BA
:10061400031C0D2B0E2B1A2BBF2A0130AE00031026
:10062400B30DB40DB50DB60DAE0B112B0130B702E1
:100634003708031D1E2B1F2B0F2B32080319232BE6
:10064400242B2F2BB309B409B509B609B30A03192E
:10065400B40A0319B50A0319B60A3608AD003508F9
:10066400AC003408AB003308AA000800F30083127E
:10067400031305108510051185118D2B013084009D
:100684000120F1007108F400C02B02308400012025
:10069400F1007108F400C02B033084000120F10044
:1006A4007108F400C02B043084000120F1007108AB
:1006B400F400C02B053084000120F1007108F4001F
:1006C400C02B063084000120F1007108F400C02B17
:1006D400073084000120F1007108F400C02B0830B9
:1006E40084000120F1007108F400C02B093084005B
:1006F4000120F1007108F400C02B0A3084000120AD
:10070400F1007108F400C02B0B3084000120F100CB
:100714007108F400C02B7308F100F2017208003A6A
:100724000319952BC02B7108003A0319402B013A89
:100734000319472B033A03194E2B013A0319552B7E
:10074400073A03195C2B013A0319632B033A031983
:100754006A2B013A0319712B0F3A0319782B013ACA
:1007640003197F2B893A0319862BC02B0514D62B2A
:100774008514D62B0515D62B8515D62B7008F100BC
:10078400F2017208003A0319C82BD62B7108003AFB
:100794000319B82B013A0319BA2B033A0319BC2BDA
:1007A400013A0319BE2BD62B74088600080080304A
:1007B40083120313BD003D08C4003808FB00390848
:1007C400FC003A08FD000030F8007A30F9004430AB
:1007D400FA00B024780883120313AA007908AB0046
:1007E4007A08AC00AC22831203133808F0003908ED
:1007F400F1003A08F200FC30F3001F30F4004130FD
:10080400F5007A210318072C082C982C8312031363
:100814003808F0003908F1003A08F2000030F3001B
:100824000030F4000030F5007A21031C1A2C1B2C34
:10083400982C831203133808FB003908FC003A088B
:10084400FD000030F8007A30F9004430FA00B0249A
:10085400780883120313AA007908AB007A08AC0065
:10086400AC22831203132B08BF002A08BE00E83011
:10087400F0000330F1003F08F3003E08F200EC21E1
:10088400700883120313BD003D08C000E830F00077
:100894000330F1003F08F3003E08F200B221710872
:1008A40083120313BF007008BE006430F0000030F0
:1008B400F1003F08F3003E08F200EC2170088312B7
:1008C4000313BD003D08C1006430F0000030F100A6
:1008D4003F08F3003E08F200B221710883120313AB
:1008E400BF007008BE000A30F0000030F1003F087D
:1008F400F3003E08F200EC21700883120313BD00DC
:100904003D08C2000A30F0000030F1003F08F30057
:100914003E08F200B221710883120313BF0070086D
:10092400BE003E08BD003D08C3009E2C8312031385
:10093400C001C101C201C3013830840040088313DF
:100944008000840A41088000840A42088000840AE6
:1009540043088000840A4408800008007808831251
:100964000313A0007908A1007A08A2000310210D46
:10097400220DA3002308A4002408031DC22CC32CA9
:10098400CA2C0030F8000030F9000030FA008E2D37
:100994007B08A0007C08A1007D08A2000310210DA3
:1009A400220DA3002308A9002908031DDA2CDB2C3F
:1009B400E22C0030F8000030F9000030FA008E2DEF
:1009C40029087B3EA0002008A4077808A000790825
:1009D400A1007A08A20010300310A20CA10CA00CF4
:1009E400FF3E031DEE2C2008A3002308A9007B086A
:1009F400A0007C08A1007D08A20010300310A20C06
:100A0400A10CA00CFF3E031D002D2008A300230809
:100A1400A9068030A0002008A905F917FC17FF30AB
:100A2400FB05FF30FC050030FD050030A50000305B
:100A3400A6000030A7000730A0002008A800781CFA
:100A4400242D252D352D7B08A5077C0803110318BB
:100A54007C0A03192E2DA6077D08031103187D0AAD
:100A64000319352DA70701300310FA0CF90CF80C03
:100A7400FF3E031D362D01300310FB0DFC0DFD0D53
:100A8400FF3E031D3E2D0130A802031D4A2D4B2DB0
:100A9400212D0930A0002008A800781C522D532DC8
:100AA400632D7B08A5077C08031103187C0A03192E
:100AB4005C2DA6077D08031103187D0A0319632D15
:100AC400A70701300310FA0CF90CF80CFF3E031DC4
:100AD400642D01300310A70CA60CA50CFF3E031DCA
:100AE4006C2D0130A802031D782D792D4F2D25087A
:100AF400F0002608F1002708F2002408A0002008CE
:100B0400F3002908A1002108F40030227008F8003D
:100B14007108F9007208FA000800780883120313B8
:100B2400A0007908A1007A08A2000310210D220D6B
:100B3400A3002308A6007B08A0007C08A1007D0870
:100B4400A2000310210D220DA3002308A5002608EE
:100B54000319AD2DAE2DBE2D250826020318B32D85
:100B6400B42DC52D2508A0002608A00219302002A6
:100B7400031CBD2DBE2DC52D7B08F8007C08F90093
:100B84007D08FA00BE2E25080319C92DCA2DDA2DB9
:100B9400260825020318CF2DD02DDB2D2608A00012
:100BA4002508A00219302002031CD92DDA2DDB2DD3
:100BB400BE2E0630A0002008A400FA1FE22DE32D6B
:100BC400E42DA417FD1FE72DE82DE92D2417F917AF
:100BD400FF30F805FF30F9050030FA05FC17FF3047
:100BE400FB05FF30FC050030FD052508260203182F
:100BF400FC2DFD2D292E01300310FB0DFC0DFD0DE8
:100C0400FF3E031DFE2D0130A5022508260603190B
:100C14000C2E0D2E222E0130A40224080739031DA8
:100C2400142E152EFD2D222E01300310FA0CF90C72
:100C3400F80CFF3E031D172E0130A0002008A60764
:100C440026082506031D272E282E162E5A2E260882
:100C5400250203182E2E2F2E5A2E01300310F80DC4
:100C6400F90DFA0DFF3E031D302E0130A6022508B2
:100C7400260603193E2E3F2E542E0130A4022408CA
:100C84000739031D462E472E2F2E542E01300310F4
:100C9400FD0CFC0CFB0CFF3E031D492E0130A00093
:100CA4002008A50726082506031D592E5A2E482E6E
:100CB400A41F5D2E5E2E6E2EFF30F806FF30F9065F
:100CC400FF30FA060130F807003003180130F90745
:100CD400003003180130FA07241F712E722E822E61
:100CE400FF30FB06FF30FC06FF30FD060130FB073A
:100CF400003003180130FC07003003180130FD07F1
:100D0400A4017808FB07790803110318790A031969
:100D14008C2EFC077A08031103187A0A0319932E00
:100D2400FD07FD1F962E972EA92EFF30FB06FF30E0
:100D3400FC06FF30FD060130FB07003003180130CC
:100D4400FC07003003180130FD07A401A40A7B0846
:100D5400F0007C08F1007D08F2002608A0002008BD
:100D6400F3002408A1002108F40030227008F800E0
:100D74007108F9007208FA0008000730831203139F
:100D84009F04831603138601051085100511851130
:100D9400123083120313C8008330C9003A30CA00EA
:100DA400C7014808B8004908B9004A08BA00D9235D
:100DB4004C30840083120313380883138000840AA0
:100DC40039088000840A3A088000840A3B088000BD
:100DD400840A3C088000CB014C080319F22EF32E40
:100DE4003F2FF0014C083823C73083120313C5008A
:100DF400FB2EC50BFA2EFE2E0000F001F00A831222
:100E040003134D083823C73083120313C5000A2F78
:100E1400C50B092F0D2F0000023083120313C500E8
:100E24004508F0004E083823C73083120313C50069
:100E34001B2FC50B1A2F1E2F000003308312031320
:100E4400C5004508F0004F083823C7308312031348
:100E5400C5002C2FC50B2B2F2F2F0000F001831260
:100E6400031350083823C73083120313C5003A2FE5
:100E7400C50B392F3D2F0000D12F4D080319432FE7
:100E8400442F842FF00150083823C73083120313F2
:100E9400C5004C2FC50B4B2F4F2F0000F001F00A5B
:100EA400831203134D083823C73083120313C5007C
:100EB4005B2FC50B5A2F5E2F0000023083120313E1
:100EC400C5004508F0004E083823C73083120313C9
:100ED400C5006C2FC50B6B2F6F2F000003308312DE
:100EE4000313C5004508F0004F083823033083126C
:100EF4000313C6009730C500C50B7E2FC60B7E2F8B
:100F04000000D12F4E080319882F892FB12FF0012B
:100F140050083823C73083120313C500912FC50B23
:100F2400902F942F0000023083120313C50045084C
:100F3400F0004E083823033083120313C6009730A1
:100F4400C500C50BA32FC60BA32F000003308312CB
:100F54000313C5004508F0004F083823782FF0012B
:100F640050083823043083120313C600E430C5004C
:100F7400C50BBA2FC60BBA2F033083120313C50057
:100F84004508F0004F083823033083120313C600CA
:100F94009730C500C50BCC2FC60BCC2F00000130F9
:100FA40083120313C5004508CB0719304B02031CF9
:100FB400DC2FDD2FEE2E1230F8008330F9003A30AA
:100FC400FA004808FB004908FC004A08FD008F2588
:100FD400780883120313C8007908C9007A08CA0084
:100FE4000130C5004508C707D32E00288312031318
:0C0FF400D101D201D301D4018301BF2E32
:02400E00093F68
:00000001FF
