:020000040000FA
:100000008312031385018601870188018316880105
:10001000091183120915861C0B282030E1006F306E
:10002000E2006208E3000000000000000000E30BB3
:100030001328E10B11280000000000000000000060
:10004000861820282030E1006F30E2006208E300CB
:100050000000000000000000E30B2828E10B262828
:100060000000000000000000000088090630E000E9
:100070000000000000000000E00B38280000000035
:10008000000000000000000088090E30E100093087
:10009000E2006208E3000000000000000000E30B43
:1000A0004B28E10B49280000000000000000000080
:1000B000861C35282030E1006F30E2006208E30042
:1000C0000000000000000000E30B6028E10B5E2848
:1000D0000000000000000000000086186D2820309D
:1000E000E1006F30E2006208E30000000000000061
:1000F0000000E30B7528E10B7328000000000000EE
:100100000000000088090630E1000430E2006208C7
:10011000E3000000000000000000E30B8928E10B71
:100120008728000000000000000088097130E0000E
:100130000000000000000000E00B98280000000014
:1001400000000000861C82282030E1006F30E200B1
:100150006208E3000000000000000000E30BAA2892
:10016000E10BA82800000000000000000000861835
:10017000B7282030E1006F30E2006208E3000000A1
:10018000000000000000E30BBF28E10BBD280000C9
:10019000000000000000000088090430E100113078
:1001A000E2006208E3000000000000000000E30B32
:1001B000D328E10BD12800000000000000008809CE
:1001C0004630E0000000000000000000E00BE228E4
:1001D00000000000000000000000861CCC28203039
:1001E000E1006F30E2006208E30000000000000060
:1001F0000000E30BF528E10BF328000000000000ED
:1002000000000000861802292030E1006F30E20073
:100210006208E3000000000000000000E30B0A2970
:10022000E10B082900000000000000000000880920
:100230000230E1003830E2006208E3000000000014
:1002400000000000E30B1E29E10B1C290000000048
:100250000000000088091B30E000000000000000E2
:100260000000E00B2D29000000000000000000004D
:100270000000861C17292030E1006F30E200620880
:10028000E3000000000000000000E30B4129E10B47
:100290003F290000000000000000000086184E29E1
:1002A0002030E1006F30E2006208E300000000004F
:1002B00000000000E30B5629E10B54290000000068
:0802C0000000000000003528D9
:0402C80000340034CA
:02400E00313F40
:00000001FF
