:020000040000FA
:1000000085018601870188018316880183120330E8
:10001000E400CB30E500EA30E6006508E70066085A
:10002000E8000000000000000000E80B1128E70BCA
:100030000F28E40B0D280000000000000000023033
:10004000E1000630E2006208E3000000000000006A
:100050000000E30B2528E10B23280000000000002E
:1000600000000730E0000000000000000000E00B8E
:0C00700033280000000000000000000029
:04007C000034003418
:02400E00313F40
:00000001FF
