:020000040000FA
:10000000FE2F00308A000408840A820700343F343F
:1000100006345B344F3466346D347D3407347F34BA
:040020006F34803485
:100C72007008710403193E2E3F2E6E2EF501F50AFF
:100C82004D2E01300310F00DF10DFF3E031D432EDA
:100C92000130F4007408F507F11F502E512E422E38
:100CA20071087302031D572E70087202031C5A2E1C
:100CB2005B2E612E7008F2027108031CF303F3022B
:100CC20001300310F10CF00CFF3E031D622E0130C7
:100CD200F502031D6D2E6E2E512E7308F10072085F
:100CE200F00008000730831203139F0483160313D6
:100CF20081128601051185111730F8000030F900C4
:100D0200F8267B0883120313AB007A08AA0079083D
:100D1200A9007808A800831203132808A600260851
:100D2200F00000305F27073083120313A7007C30E6
:100D3200A600A60B9A2EA70B9A2E9F2E83120313A0
:100D42002908A6002608F00001305F270730831229
:100D52000313A7007C30A600A60BAD2EA70BAD2E69
:100D6200B22E8C2E0028F501F601700871040319C9
:100D7200BB2EBC2EF32EF701F70ACA2E0130031048
:100D8200F00DF10DFF3E031DC02E0130F40074087A
:100D9200F707F11FCD2ECE2EBF2E01300310F50D19
:100DA200F60DFF3E031DCF2E71087302031DDB2ECD
:100DB20070087202031CDE2EDF2EE62E7008F2028D
:100DC2007108031CF303F302751401300310F10CD4
:100DD200F00CFF3E031DE72E0130F702031DF22E39
:100DE200F32ECE2E7608F1007508F0000800E830E8
:100DF200F0000330F1007908F3007808F200B4261D
:100E02007008FC007C0883120313A300E830F00092
:100E12000330F1007908F3007808F20039267108EE
:100E220083120313A5007008A4006430F0000030A0
:100E3200F1002508F3002408F200B4267008FC0033
:100E42007C0883120313A2006430F0000030F1002A
:100E52002508F3002408F2003926710883120313CF
:100E6200A5007008A4000A30F0000030F100250847
:100E7200F3002408F200B4267008FC007C088312F8
:100E82000313A1000A30F0000030F1002508F3003E
:100E92002408F2003926710883120313A500700892
:100EA200A4002408FC007C08A0002308FB00220800
:100EB200FA002108F9002008F8000800F300831264
:100EC200031305118511B92F013084000120F100AF
:100ED2007108F400EB2F023084000120F100710848
:100EE200F400EB2F033084000120F1007108F400BC
:100EF200EB2F043084000120F1007108F400EB2F85
:100F0200053084000120F1007108F400EB2F063057
:100F120084000120F1007108F400EB2F07308400F7
:100F22000120F1007108F400EB2F08308400012049
:100F3200F1007108F400EB2F093084000120F10068
:100F42007108F400EB2F0A3084000120F1007108CF
:100F5200F400EB2F0B3084000120F1007108F40043
:100F6200EB2F0C3084000120F1007108F400EB2F0C
:100F72007008F100F2017208003A0319C12FEB2F39
:100F82007108003A0319652F013A03196C2F033ACD
:100F92000319732F013A03197A2F073A0319812F84
:100FA200013A0319882F033A03198F2F013A0319C3
:100FB200962F0F3A03199D2F013A0319A42F033AD2
:100FC2000319AB2F8A3A0319B22FEB2F0515FB2F0A
:100FD2008515FB2F7308F100F2017208003A03191C
:100FE200F32FFB2F7108003A0319E72F013A031977
:0E0FF200E92FFB2F7408860008008301732E80
:02400E00093F68
:00000001FF
